:020000040000FA
:20000000023C008103FF291020F3FF810BFF043B09FFFF8113FFFFFF10A0FF811BFFFFFF2A
:15002000FFFFFF8123FFFFFFFFFFFF812BFFFFFFFFFFFF8133D6
:02003B00813B07
:020043008143F7
:02004B00814BE7
:020053008153D7
:20005B00815B6500D83DE63D8163040309040100816BE59620E7FB2281737848800600004E
:20007B00817B7840116D7596118897D2012220F71430F6148883A88220F507E6A883758344
:20009B000022E280F7E49322E022AF0ABF0400400A7E00C3743B9FE49E5002C32275B7A550
:2000BB0075B7F1D322E508FF24FC405EEF2F2F9000CE730201130200FA0200DA02011774CF
:2000DB00FFB50B01221200A55040790987060987078E828F83438F01E50BF0538FFE22124D
:2000FB0000A55026790987060987078E828F83438F03E4F0538FFC2275EF102279098706B4
:20011B000987078E188F19751A8022751879751900751A80300209751869751900751A803D
:20013B00751B01750F0102007DAF82E5144515700BFEEFB51606EEB51702D322C322AF828B
:20015B00E512451370058F82020144C322C20174605510FF6009BF20030203A50203BFE5EA
:20017B0011FF24F450030203BFEF240A83F582EF241083F583E473AA08A308A33C72A31335
:20019B00397891010203020302020303030303E5124513600E7402B51606E4B517028003AB
:2001BB000203BFE51560030203BFAE10BE8002800ABE81028010BE822E801BE5147028C28A
:2001DB000212012680217404B50E1CE5146018C20212012680117404B50E0C7481B51407C6
:2001FB00A2009202120126751B020203BF7404B50E0280030203BF7402B5100280030203D6
:20021B00BFE51260030203BF7481B5140280030203BFBF0303D38001C392001200750203E5
:20023B00BFE51060030203BF75820012014440030203BFE51360030203BFE51230E7030241
:20025B0003BF750F05E5126005750E038003750E021200750203BFAF13BF01028017BF0227
:20027B00028020BF03028029BF2102805EBF220280670203BF75188F75193D751A80751B80
:20029B001280627518A175193D751A80751B228054E512FF24FD50030203BFEF75F002A499
:2002BB0024F2F582743D35F0F583E493FEA3E493FF8E188F19751A80AD18AE19AF1A8D82F9
:2002DB008E838FF0120089F51B801A7518B375193D751A80751B09800C7518C375193D755F
:2002FB001A80751B15AF16C3EF951B50028F1B12007D750F010203BF7480B5100280030269
:20031B0003BF75820112015940030203BF7404B50E03D38001C392021201260203BF740239
:20033B00B50E030203BFE51060030203BF75820012014440030203BFE51360030203BFAFD9
:20035B0012BF020040030203BFBF0107750E04C2008005750E03D20012007580477404B540
:20037B000E427481B5103D7582011201595035C202120126802E7401B5102975820012011A
:20039B00595021120075801C801AAF11BF01028005BF09108005750F018003750F02751B39
:1103BB000412007D200109758220123D7A750F0422EA
:203C000075812075D90030B01B900400E493FFBF0212E5EF30E40A900000E0FFBFA5028021
:203C200003120400900000E4F043B20375B98043B9C075FF807FFADFFEE5B930E5FB75A98F
:203C40000275EF02750D01758208123D8075D7E0750D0F758280123D80750E02750D01752B
:203C60008201123D80750F00D200750D0E758200123D80758206123D5BAF82758202C007AE
:203C8000123D5BAE82D007EF20E2CEEE30E0E4123CB080DFAF82E51B60157596E08F01C094
:203CA0000112006DD001A79709D51BF375960022123D707405B50F0C851282750D00123D6A
:203CC00080750F00E50C30E20A758200123D7A750F0022E50C30E409758288123D7A750F93
:203CE00000E50F7011E50C30E00C751B08758210123C941201687401B50F3EE50C20E139A4
:203D0000123D70E50C54116002802E12006D759620AD18AE19AF1A8D828E838FF012008945
:203D2000F5970518E4B51802051912006DD51BE1750F0075820A123D7A7402B50F1C123DC6
:203D400070E50C30E014758208123C94750F007409B511031200C002007522AF82C00712BE
:203D6000006DD00774804FF59612006D85978222758211123D5B85820C22750D11023D80B9
:203D8000AF82C00712006DD007850D968F97221201000200000040C4102186010001020091
:203DA00001090222000101008032090400000103000000092111010001221500070581030C
:203DC00040000A0600FF0901A1019504750826FF0015000901B102C00E03470047004C0030
:183DE0004100420053000C03470042004F004F0054006500D83DE63DCE
:00000001FF
