:020000040000FA
:2000000002FA008103FF291080F3FF810BFF04F909FFFF8113FFFFFF10A0FF811BFFFFFF4E
:15002000FFFFFF8123FFFFFFFFFFFF812BFFFFFFFFFFFF8133D6
:02003B00813B07
:020043008143F7
:02004B00814BE7
:020053008153D7
:20005B00815B6500D8FBE6FB8163040309040100816BE59620E7FB2281737848802E0000AA
:02007B00817B87
:02008300818377
:02009300819357
:02009B00819B47
:2000A30081A37840116D7596118897D2012220F71430F6148883A88220F507E6A8837583F4
:2000C3000022E280F7E49322E022AF0ABF0400400A7E00C374F99FE49E5002C32275B7A56A
:2000E30075B7F1D322E508FF24FC405EEF2F2F9000F67302013B02012202010202013F74DD
:20010300FFB50B01221200CD5040790987060987078E828F83438F01E50BF0538FFE2212FC
:2001230000CD5026790987060987078E828F83438F03E4F0538FFC2275EF10227909870663
:200143000987078E188F19751A8022751879751900751A80300209751869751900751A8015
:20016300751B01750F010200A5AF82E5144515700BFEEFB51606EEB51702D322C322AF823B
:20018300E512451370058F8202016CC322C20174605510FF6009BF20030203CD0203E7E54A
:2001A30011FF24F450030203E7EF240A83F582EF241083F583E473D230CB30CB649ACB3B7D
:2001C30061A0B9010203020302020303030303E5124513600E7402B51606E4B5170280030B
:2001E3000203E7E51560030203E7AE10BE8002800ABE81028010BE822E801BE5147028C212
:200203000212014E80217404B50E1CE5146018C20212014E80117404B50E0C7481B514074D
:20022300A200920212014E751B020203E77404B50E0280030203E77402B510028003020335
:20024300E7E51260030203E77481B5140280030203E7BF0303D38001C39200120075020345
:20026300E7E51060030203E775820012016C40030203E7E51360030203E7E51230E7030251
:2002830003E7750F05E5126005750E038003750E021200750203E7AF13BF01028017BF02AF
:2002A300028020BF03028029BF2102805EBF220280670203E775188F7519FB751A80751B72
:2002C3001280627518A17519FB751A80751B228054E512FF24FD50030203E7EF75F002A48B
:2002E30024F2F58274FB35F0F583E493FEA3E493FF8E188F19751A80AD18AE19AF1A8D8213
:200303008E838FF01200B1F51B801A7518B37519FB751A80751B09800C7518C37519FB7592
:200323001A80751B15AF16C3EF951B50028F1B1200A5750F010203E77480B51002800302F0
:2003430003E775820112018140030203E77404B50E03D38001C3920212014E0203E7740249
:20036300B50E030203E7E51060030203E775820012016C40030203E7E51360030203E7AFE9
:2003830012BF020040030203E7BF0107750E04C2008005750E03D20012007580477404B5F0
:2003A3000E427481B5103D7582011201815035C20212014E802E7401B510297582001201A2
:2003C300815021120075801C801AAF11BF01028005BF09108005750F018003750F02751BE9
:1103E300041200A520010975822012FB7A750F0422DC
:20FA000075812075D90030B01B900400E493FFBF0212E5EF30E40A900000E0FFBFA5028063
:20FA200003120400900000E4F043B20375B98043B9C075FF807FFADFFEE5B930E5FB75A9D1
:20FA40000275EF02750D0175820812FB8075D7E0750D0F75828012FB80750E02750D0175F1
:20FA6000820112FB80750F00D200750D0E75820012FB8075820612FB5BAF82758202C007B6
:20FA800012FB5BAE82D007EF20E2CEEE30E0E412FAB080DFAF82E51B60157596E08F01C05A
:20FAA0000112006DD001A79709D51BF37596002212FB707405B50F0C851282750D0012FB30
:20FAC00080750F00E50C30E20A75820012FB7A750F0022E50C30E40975828812FB7A750F59
:20FAE00000E50F7011E50C30E00C751B0875821012FA941201907401B50F3EE50C20E13900
:20FB000012FB70E50C54116002802E12006D759620AD18AE19AF1A8D828E838FF01200B1A1
:20FB2000F5970518E4B51802051912006DD51BE1750F0075820A12FB7A7402B50F1C12FB8C
:20FB400070E50C30E01475820812FA94750F007409B511031200E802007522AF82C007121A
:20FB6000006DD00774804FF59612006D8597822275821112FB5B85820C22750D1102FB807F
:20FB8000AF82C00712006DD007850D968F97221201000200000040C41021860100010200D3
:20FBA00001090222000101008032090400000103000000092111010001221500070581034E
:20FBC00040000A0600FF0901A1019504750826FF0015000901B102C00E03470047004C0072
:18FBE0004100420053000C03470042004F004F0054006500D8FBE6FB94
:00000001FF
