:020000040000FA
:2000000002FA038103FF290040F3FF810BFF04F909FFFF8113FFFFFF10A0FF811BFFFFFF9B
:15002000FFFFFF8123FFFFFFFFFFFF812BFFFFFFFFFFFF8133D6
:02003B00813B07
:020043008143F7
:02004B00814BE7
:020053008153D7
:20005B00815B65008EFB9CFB8163040309040100816BE59620E7FB2281737848800E00005E
:02007B00817B87
:2000830081837840116D7596118897D20122AF0ABF0400400A7E00C374F99FE49E5002C349
:2000A3002275B7A575B7F1D322E508FF24FC4054EF2F9000B97301F801E001C101FC74FFB2
:2000C300B50B01221191503C790987060987078E828F83438F01E50BF0538FFE221191509D
:2000E30023790987060987078E828F83438F03E4F0538FFC2275EF1022790987060987072D
:200103008E188F1922751879751900751A01750F010185310830020375186922C201746020
:200123005510FF6007BF2002413C4155E511FF24F450024155EF2F90013E732156216A4165
:200143003A2170413A21762190413A410E411D413241367482B51008A2009202311680023A
:200163003108751A024155C20011754155D20011754155E51230E7024155750F05E51260CA
:2001830005750E038003750E0211754155AF13BF01028016BF0202801CBF03028022BF21EE
:2001A300028043BF2202804941557518457519FB751A1280457518577519FB751A22803A9C
:2001C300E51224FD50024155E51223245DF582E4F58393F518740193F519851882851983B8
:2001E300E493F51A80147518697519FB751A0980097518797519FB751A15AF16C3EF951AE9
:2002030050028F1A1185750F0180477404B50E03D38001C39202311680387401B51207755E
:200223000E04C2008005750E03D200117580233108801F1175801B8019AF11BF0102800548
:1D024300BF090F8005750F018003750F02751A04118520010778201187750F042289
:20FA000002006D75812075D90030B00B900400E493B4020302040043B20375B98043B9C0FC
:20FA200075FF807FFADFFEE5B930E5FB75A90275EF02750D01758208713B75D7E0750D0F5D
:20FA4000758280713B750E02750D01758201713B750F00D200750D0E758200713B75820651
:20FA6000711EAF82758202C007711EAE82D007EF20E2D2EE30E0E6518C80E2A9827596E074
:20FA80005100A79709D51AF875960022712D7405B50F0B851282750D00713B750F00E50C18
:20FAA00030E2097582007136750F0022E50C30E4087582887136750F00E50F7010E50C309B
:20FAC000E00B751A08758210517B12011F7401B50F2CE50C20E127712DE50C54116002804B
:20FAE0001D5100759620851882851983E493F597A35100D51AF6750F0075820A71367402AF
:20FB0000B50F1A712DE50C30E013758208517B750F007409B511031200AC12007522AF8228
:20FB2000510074804FF596510085978222758211711E85820C22750D11613BAF8251008593
:20FB40000D968F97221201000200000040C410218601000102000109022200010100803204
:20FB60000904000001030000000921110100012215000705810340000A0600FF0901A10175
:20FB80009504750826FF0015000901B102C00E03470047004C004100420053000C03470081
:08FBA00042004F004F00540029
:00000001FF
