:020000040000FA
:2000000002FA038103FF290080F3FF810BFF04F909FFFF8113FFFFFF10A0FF811BFFFFFF5B
:15002000FFFFFF8123FFFFFFFFFFFF812BFFFFFFFFFFFF8133D6
:02003B00813B07
:020043008143F7
:02004B00814BE7
:020053008153D7
:20005B00815B65008EFB9CFB8163040309040100816BE59620E7FB2281737848802E00003E
:02007B00817B87
:02008300818377
:02009300819357
:02009B00819B47
:2000A30081A37840116D7596118897D20122AF0ABF0400400A7E00C374F99FE49E5002C309
:2000C3002275B7A575B7F1D322E508FF24FC4054EF2F9000D9732118210001E1211C74FF92
:2000E300B50B012211B1503C790987060987078E828F83438F01E50BF0538FFE2211B1503D
:2001030023790987060987078E828F83438F03E4F0538FFC2275EF1022790987060987070C
:200123008E188F1922751879751900751A01750F0101A5312830020375186922C2017460C0
:200143005510FF6007BF2002415C4175E511FF24F450024175EF2F90015E732176218A4185
:200163005A2190415A219621B0415A412E413D415241567482B51008A200920231368002BA
:200183003128751A024175C20011754175D20011754175E51230E7024175750F05E512600A
:2001A30005750E038003750E0211754175AF13BF01028016BF0202801CBF03028022BF21AE
:2001C300028043BF2202804941757518457519FB751A1280457518577519FB751A22803A5C
:2001E300E51224FD50024175E51223245DF582E4F58393F518740193F51985188285198378
:20020300E493F51A80147518697519FB751A0980097518797519FB751A15AF16C3EF951AC8
:2002230050028F1A11A5750F0180477404B50E03D38001C39202313680387401B5120775FE
:200243000E04C2008005750E03D200117580233128801F1175801B8019AF11BF0102800508
:1D026300BF090F8005750F018003750F02751A0411A5200107782011A7750F042229
:20FA000002006D75812075D90030B00B900400E493B4020302040043B20375B98043B9C0FC
:20FA200075FF807FFADFFEE5B930E5FB75A90275EF02750D01758208713B75D7E0750D0F5D
:20FA4000758280713B750E02750D01758201713B750F00D200750D0E758200713B75820651
:20FA6000711EAF82758202C007711EAE82D007EF20E2D2EE30E0E6518C80E2A9827596E074
:20FA80005100A79709D51AF875960022712D7405B50F0B851282750D00713B750F00E50C18
:20FAA00030E2097582007136750F0022E50C30E4087582887136750F00E50F7010E50C309B
:20FAC000E00B751A08758210517B12013F7401B50F2CE50C20E127712DE50C54116002802B
:20FAE0001D5100759620851882851983E493F597A35100D51AF6750F0075820A71367402AF
:20FB0000B50F1A712DE50C30E013758208517B750F007409B511031200CC12007522AF8208
:20FB2000510074804FF596510085978222758211711E85820C22750D11613BAF8251008593
:20FB40000D968F97221201000200000040C410218601000102000109022200010100803204
:20FB60000904000001030000000921110100012215000705810340000A0600FF0901A10175
:20FB80009504750826FF0015000901B102C00E03470047004C004100420053000C03470081
:08FBA00042004F004F00540029
:00000001FF
