:020000040000FA
:20000000027E038103FF290043F3FF810BFF047D09FFFF8113FFFFFF10A0FF811BFFFFFF90
:15002000FFFFFF8123FFFFFFFFFFFF812BFFFFFFFFFFFF8133D6
:02003B00813B07
:020043008143F7
:02004B00814BE7
:020053008153D7
:20005B00815B65008E7F9C7F8163040309040100816BE59620E7FB2281737848800600005E
:20007B00817B7840116D7596118897D20122AF0ABF0400400A7E00C3747D9FE49E5002C3D5
:20009B002275B7A575B7F1D322E508FF24FC4054EF2F9000B17301F001D801B901F474FFE2
:2000BB00B50B01221189503C790987060987078E828F83438F01E50BF0538FFE22118950B5
:2000DB0023790987060987078E828F83438F03E4F0538FFC2275EF10227909870609870735
:2000FB008E188F1922751879751900751A01750F01017D310030020375186922C201746039
:20011B005510FF6007BF20024134414DE511FF24F45002414DEF2F90013673214E2162419D
:20013B003221684132216E2188413241064115412A412E7482B51008A2009202310E80029A
:20015B003100751A02414DC2001175414DD2001175414DE51230E702414D750F05E51260FA
:20017B0005750E038003750E021175414DAF13BF01028016BF0202801CBF03028022BF21FE
:20019B00028043BF22028049414D75184575197F751A12804575185775197F751A22803AA4
:2001BB00E51224FD5002414DE51223245DF582E4F58393F518740193F519851882851983C8
:2001DB00E493F51A801475186975197F751A09800975187975197F751A15AF16C3EF951AE9
:2001FB0050028F1A117D750F0180477404B50E03D38001C39202310E80387401B512077577
:20021B000E04C2008005750E03D200117580233100801F1175801B8019AF11BF0102800558
:1D023B00BF090F8005750F018003750F02751A04117D2001077820117F750F0422A1
:207E000002006D75812075D90030B00B900400E493B4020302040043B20375B98043B9C078
:207E200075FF807FFADFFEE5B930E5FB75A90275EF02750D01758208F13B75D7E0750D0F59
:207E4000758280F13B750E02750D01758201F13B750F00D200750D0E758200F13B7582064D
:207E6000F11EAF82758202C007F11EAE82D007EF20E2D2EE30E0E6D18C80E2A9827596E070
:207E8000D100A79709D51AF875960022F12D7405B50F0B851282750D00F13B750F00E50C14
:207EA00030E209758200F136750F0022E50C30E408758288F136750F00E50F7010E50C3017
:207EC000E00B751A08758210D17B1201177401B50F2CE50C20E127F12DE50C5411600280CF
:207EE0001DD100759620851882851983E493F597A3D100D51AF6750F0075820AF1367402AB
:207F0000B50F1AF12DE50C30E013758208D17B750F007409B511031200A412007522AF82AC
:207F2000D10074804FF596D10085978222758211F11E85820C22750D11E13BAF82D100858F
:207F40000D968F97221201000200000040C410218601000102000109022200010100803280
:207F60000904000001030000000921110100012215000705810340000A0600FF0901A101F1
:207F80009504750826FF0015000901B102C00E03470047004C004100420053000C034700FD
:087FA00042004F004F005400A5
:00000001FF
